{"abi":[{"type":"function","name":"addPost","inputs":[{"name":"_post","type":"tuple","internalType":"struct Instagram.Post","components":[{"name":"description","type":"string","internalType":"string"},{"name":"uri","type":"string","internalType":"string"}]}],"outputs":[],"stateMutability":"nonpayable"},{"type":"function","name":"getAllPosts","inputs":[{"name":"_start","type":"uint256","internalType":"uint256"},{"name":"_end","type":"uint256","internalType":"uint256"}],"outputs":[{"name":"","type":"tuple[]","internalType":"struct Instagram.Post[]","components":[{"name":"description","type":"string","internalType":"string"},{"name":"uri","type":"string","internalType":"string"}]}],"stateMutability":"view"},{"type":"function","name":"getLikesOfPost","inputs":[{"name":"_postId","type":"uint256","internalType":"uint256"}],"outputs":[{"name":"","type":"uint256","internalType":"uint256"}],"stateMutability":"view"},{"type":"function","name":"getPost","inputs":[{"name":"_postId","type":"uint256","internalType":"uint256"}],"outputs":[{"name":"","type":"tuple","internalType":"struct Instagram.Post","components":[{"name":"description","type":"string","internalType":"string"},{"name":"uri","type":"string","internalType":"string"}]}],"stateMutability":"view"},{"type":"function","name":"getPostCounterByUser","inputs":[{"name":"_user","type":"address","internalType":"address"}],"outputs":[{"name":"","type":"uint256","internalType":"uint256"}],"stateMutability":"view"},{"type":"function","name":"getPostUser","inputs":[{"name":"_user","type":"address","internalType":"address"},{"name":"_postId","type":"uint256","internalType":"uint256"}],"outputs":[{"name":"","type":"tuple","internalType":"struct Instagram.Post","components":[{"name":"description","type":"string","internalType":"string"},{"name":"uri","type":"string","internalType":"string"}]}],"stateMutability":"view"},{"type":"function","name":"getUri","inputs":[{"name":"_postId","type":"uint256","internalType":"uint256"}],"outputs":[{"name":"","type":"string","internalType":"string"}],"stateMutability":"view"},{"type":"function","name":"like","inputs":[{"name":"_postId","type":"uint256","internalType":"uint256"}],"outputs":[],"stateMutability":"nonpayable"},{"type":"function","name":"s_postCounterId","inputs":[],"outputs":[{"name":"","type":"uint256","internalType":"uint256"}],"stateMutability":"view"},{"type":"function","name":"unlike","inputs":[{"name":"_postId","type":"uint256","internalType":"uint256"}],"outputs":[],"stateMutability":"nonpayable"},{"type":"event","name":"Like","inputs":[{"name":"postId","type":"uint256","indexed":true,"internalType":"uint256"},{"name":"user","type":"address","indexed":false,"internalType":"address"}],"anonymous":false},{"type":"event","name":"PostAdded","inputs":[{"name":"postId","type":"uint256","indexed":true,"internalType":"uint256"},{"name":"description","type":"string","indexed":false,"internalType":"string"},{"name":"owner","type":"address","indexed":false,"internalType":"address"}],"anonymous":false},{"type":"event","name":"Unlike","inputs":[{"name":"postId","type":"uint256","indexed":true,"internalType":"uint256"},{"name":"user","type":"address","indexed":false,"internalType":"address"}],"anonymous":false},{"type":"error","name":"PostDoesNotExist","inputs":[{"name":"postId","type":"uint256","internalType":"uint256"}]}],"bytecode":{"object":"0x6080604052348015600f57600080fd5b506119e58061001f6000396000f3fe608060405234801561001057600080fd5b506004361061009e5760003560e01c806382cfb2701161006657806382cfb2701461016b5780639be69d6c14610189578063da0544aa146101b9578063e82935da146101e9578063f9d1608e146102055761009e565b80632895a7d8146100a357806340731c24146100d357806374d21ae0146101035780637519995e1461011f57806377f47e861461014f575b600080fd5b6100bd60048036038101906100b89190610ed2565b610235565b6040516100ca91906110a8565b60405180910390f35b6100ed60048036038101906100e891906110ca565b61043a565b6040516100fa919061113b565b60405180910390f35b61011d600480360381019061011891906110ca565b6105df565b005b610139600480360381019061013491906111bb565b61080d565b604051610146919061113b565b60405180910390f35b610169600480360381019061016491906113c2565b6109f0565b005b610173610bac565b604051610180919061141a565b60405180910390f35b6101a3600480360381019061019e91906110ca565b610bb2565b6040516101b0919061141a565b60405180910390f35b6101d360048036038101906101ce91906110ca565b610c26565b6040516101e0919061147f565b60405180910390f35b61020360048036038101906101fe91906110ca565b610d22565b005b61021f600480360381019061021a91906114a1565b610e25565b60405161022c919061141a565b60405180910390f35b606060006001848461024791906114fd565b6102519190611531565b905060008167ffffffffffffffff81111561026f5761026e611200565b5b6040519080825280602002602001820160405280156102a857816020015b610295610e6e565b81526020019060019003908161028d5790505b50905060005b8281101561042e576001600082886102c69190611531565b81526020019081526020016000206040518060400160405290816000820180546102ef90611594565b80601f016020809104026020016040519081016040528092919081815260200182805461031b90611594565b80156103685780601f1061033d57610100808354040283529160200191610368565b820191906000526020600020905b81548152906001019060200180831161034b57829003601f168201915b5050505050815260200160018201805461038190611594565b80601f01602080910402602001604051908101604052809291908181526020018280546103ad90611594565b80156103fa5780601f106103cf576101008083540402835291602001916103fa565b820191906000526020600020905b8154815290600101906020018083116103dd57829003601f168201915b505050505081525050828281518110610416576104156115c5565b5b602002602001018190525080806001019150506102ae565b50809250505092915050565b610442610e6e565b816000548111806104535750600081145b1561049557806040517f018ef78a00000000000000000000000000000000000000000000000000000000815260040161048c919061141a565b60405180910390fd5b600160008481526020019081526020016000206040518060400160405290816000820180546104c390611594565b80601f01602080910402602001604051908101604052809291908181526020018280546104ef90611594565b801561053c5780601f106105115761010080835404028352916020019161053c565b820191906000526020600020905b81548152906001019060200180831161051f57829003601f168201915b5050505050815260200160018201805461055590611594565b80601f016020809104026020016040519081016040528092919081815260200182805461058190611594565b80156105ce5780601f106105a3576101008083540402835291602001916105ce565b820191906000526020600020905b8154815290600101906020018083116105b157829003601f168201915b505050505081525050915050919050565b806000548111806105f05750600081145b1561063257806040517f018ef78a000000000000000000000000000000000000000000000000000000008152600401610629919061141a565b60405180910390fd5b600060046000848152602001908152602001600020905060005b81805490508110156107cf573373ffffffffffffffffffffffffffffffffffffffff16828281548110610682576106816115c5565b5b9060005260206000200160009054906101000a900473ffffffffffffffffffffffffffffffffffffffff1673ffffffffffffffffffffffffffffffffffffffff16036107c257600082600184805490506106dc91906114fd565b815481106106ed576106ec6115c5565b5b9060005260206000200160009054906101000a900473ffffffffffffffffffffffffffffffffffffffff1690508083838154811061072e5761072d6115c5565b5b9060005260206000200160006101000a81548173ffffffffffffffffffffffffffffffffffffffff021916908373ffffffffffffffffffffffffffffffffffffffff16021790555082805480610787576107866115f4565b5b6001900381819060005260206000200160006101000a81549073ffffffffffffffffffffffffffffffffffffffff02191690559055506107cf565b808060010191505061064c565b50827f59b64a402d5e7d57bd1da203ec10442e896570cfc641d11b1eb0d71a71469c14336040516108009190611632565b60405180910390a2505050565b610815610e6e565b816000548111806108265750600081145b1561086857806040517f018ef78a00000000000000000000000000000000000000000000000000000000815260040161085f919061141a565b60405180910390fd5b600260008573ffffffffffffffffffffffffffffffffffffffff1673ffffffffffffffffffffffffffffffffffffffff16815260200190815260200160002060008481526020019081526020016000206040518060400160405290816000820180546108d390611594565b80601f01602080910402602001604051908101604052809291908181526020018280546108ff90611594565b801561094c5780601f106109215761010080835404028352916020019161094c565b820191906000526020600020905b81548152906001019060200180831161092f57829003601f168201915b5050505050815260200160018201805461096590611594565b80601f016020809104026020016040519081016040528092919081815260200182805461099190611594565b80156109de5780601f106109b3576101008083540402835291602001916109de565b820191906000526020600020905b8154815290600101906020018083116109c157829003601f168201915b50505050508152505091505092915050565b600081602001515111610a38576040517f08c379a0000000000000000000000000000000000000000000000000000000008152600401610a2f90611699565b60405180910390fd5b600080815480929190610a4a906116b9565b91905055508060016000805481526020019081526020016000206000820151816000019081610a7991906118ad565b506020820151816001019081610a8f91906118ad565b5090505080600260003373ffffffffffffffffffffffffffffffffffffffff1673ffffffffffffffffffffffffffffffffffffffff1681526020019081526020016000206000805481526020019081526020016000206000820151816000019081610afa91906118ad565b506020820151816001019081610b1091906118ad565b50905050600360003373ffffffffffffffffffffffffffffffffffffffff1673ffffffffffffffffffffffffffffffffffffffff1681526020019081526020016000206000815480929190610b64906116b9565b91905055506000547f04252f9458f5e6a7ca08253452fa6b47ae7e4e41f3638def7f399e2e3dd64c79826000015133604051610ba192919061197f565b60405180910390a250565b60005481565b600081600054811180610bc55750600081145b15610c0757806040517f018ef78a000000000000000000000000000000000000000000000000000000008152600401610bfe919061141a565b60405180910390fd5b6004600084815260200190815260200160002080549050915050919050565b606081600054811180610c395750600081145b15610c7b57806040517f018ef78a000000000000000000000000000000000000000000000000000000008152600401610c72919061141a565b60405180910390fd5b600160008481526020019081526020016000206001018054610c9c90611594565b80601f0160208091040260200160405190810160405280929190818152602001828054610cc890611594565b8015610d155780601f10610cea57610100808354040283529160200191610d15565b820191906000526020600020905b815481529060010190602001808311610cf857829003601f168201915b5050505050915050919050565b80600054811180610d335750600081145b15610d7557806040517f018ef78a000000000000000000000000000000000000000000000000000000008152600401610d6c919061141a565b60405180910390fd5b60046000838152602001908152602001600020339080600181540180825580915050600190039060005260206000200160009091909190916101000a81548173ffffffffffffffffffffffffffffffffffffffff021916908373ffffffffffffffffffffffffffffffffffffffff160217905550817fda935a3772736202dd12b1bc54cb3460939e447d95d5648c6dbd89836121823a33604051610e199190611632565b60405180910390a25050565b6000600360008373ffffffffffffffffffffffffffffffffffffffff1673ffffffffffffffffffffffffffffffffffffffff168152602001908152602001600020549050919050565b604051806040016040528060608152602001606081525090565b6000604051905090565b600080fd5b600080fd5b6000819050919050565b610eaf81610e9c565b8114610eba57600080fd5b50565b600081359050610ecc81610ea6565b92915050565b60008060408385031215610ee957610ee8610e92565b5b6000610ef785828601610ebd565b9250506020610f0885828601610ebd565b9150509250929050565b600081519050919050565b600082825260208201905092915050565b6000819050602082019050919050565b600081519050919050565b600082825260208201905092915050565b60005b83811015610f78578082015181840152602081019050610f5d565b60008484015250505050565b6000601f19601f8301169050919050565b6000610fa082610f3e565b610faa8185610f49565b9350610fba818560208601610f5a565b610fc381610f84565b840191505092915050565b60006040830160008301518482036000860152610feb8282610f95565b915050602083015184820360208601526110058282610f95565b9150508091505092915050565b600061101e8383610fce565b905092915050565b6000602082019050919050565b600061103e82610f12565b6110488185610f1d565b93508360208202850161105a85610f2e565b8060005b8581101561109657848403895281516110778582611012565b945061108283611026565b925060208a0199505060018101905061105e565b50829750879550505050505092915050565b600060208201905081810360008301526110c28184611033565b905092915050565b6000602082840312156110e0576110df610e92565b5b60006110ee84828501610ebd565b91505092915050565b600060408301600083015184820360008601526111148282610f95565b9150506020830151848203602086015261112e8282610f95565b9150508091505092915050565b6000602082019050818103600083015261115581846110f7565b905092915050565b600073ffffffffffffffffffffffffffffffffffffffff82169050919050565b60006111888261115d565b9050919050565b6111988161117d565b81146111a357600080fd5b50565b6000813590506111b58161118f565b92915050565b600080604083850312156111d2576111d1610e92565b5b60006111e0858286016111a6565b92505060206111f185828601610ebd565b9150509250929050565b600080fd5b7f4e487b7100000000000000000000000000000000000000000000000000000000600052604160045260246000fd5b61123882610f84565b810181811067ffffffffffffffff8211171561125757611256611200565b5b80604052505050565b600061126a610e88565b9050611276828261122f565b919050565b600080fd5b600080fd5b600080fd5b600067ffffffffffffffff8211156112a5576112a4611200565b5b6112ae82610f84565b9050602081019050919050565b82818337600083830152505050565b60006112dd6112d88461128a565b611260565b9050828152602081018484840111156112f9576112f8611285565b5b6113048482856112bb565b509392505050565b600082601f83011261132157611320611280565b5b81356113318482602086016112ca565b91505092915050565b6000604082840312156113505761134f6111fb565b5b61135a6040611260565b9050600082013567ffffffffffffffff81111561137a5761137961127b565b5b6113868482850161130c565b600083015250602082013567ffffffffffffffff8111156113aa576113a961127b565b5b6113b68482850161130c565b60208301525092915050565b6000602082840312156113d8576113d7610e92565b5b600082013567ffffffffffffffff8111156113f6576113f5610e97565b5b6114028482850161133a565b91505092915050565b61141481610e9c565b82525050565b600060208201905061142f600083018461140b565b92915050565b600082825260208201905092915050565b600061145182610f3e565b61145b8185611435565b935061146b818560208601610f5a565b61147481610f84565b840191505092915050565b600060208201905081810360008301526114998184611446565b905092915050565b6000602082840312156114b7576114b6610e92565b5b60006114c5848285016111a6565b91505092915050565b7f4e487b7100000000000000000000000000000000000000000000000000000000600052601160045260246000fd5b600061150882610e9c565b915061151383610e9c565b925082820390508181111561152b5761152a6114ce565b5b92915050565b600061153c82610e9c565b915061154783610e9c565b925082820190508082111561155f5761155e6114ce565b5b92915050565b7f4e487b7100000000000000000000000000000000000000000000000000000000600052602260045260246000fd5b600060028204905060018216806115ac57607f821691505b6020821081036115bf576115be611565565b5b50919050565b7f4e487b7100000000000000000000000000000000000000000000000000000000600052603260045260246000fd5b7f4e487b7100000000000000000000000000000000000000000000000000000000600052603160045260246000fd5b61162c8161117d565b82525050565b60006020820190506116476000830184611623565b92915050565b7f5572692063616e6e6f7420626520656d70747900000000000000000000000000600082015250565b6000611683601383611435565b915061168e8261164d565b602082019050919050565b600060208201905081810360008301526116b281611676565b9050919050565b60006116c482610e9c565b91507fffffffffffffffffffffffffffffffffffffffffffffffffffffffffffffffff82036116f6576116f56114ce565b5b600182019050919050565b60008190508160005260206000209050919050565b60006020601f8301049050919050565b600082821b905092915050565b6000600883026117637fffffffffffffffffffffffffffffffffffffffffffffffffffffffffffffffff82611726565b61176d8683611726565b95508019841693508086168417925050509392505050565b6000819050919050565b60006117aa6117a56117a084610e9c565b611785565b610e9c565b9050919050565b6000819050919050565b6117c48361178f565b6117d86117d0826117b1565b848454611733565b825550505050565b600090565b6117ed6117e0565b6117f88184846117bb565b505050565b5b8181101561181c576118116000826117e5565b6001810190506117fe565b5050565b601f8211156118615761183281611701565b61183b84611716565b8101602085101561184a578190505b61185e61185685611716565b8301826117fd565b50505b505050565b600082821c905092915050565b600061188460001984600802611866565b1980831691505092915050565b600061189d8383611873565b9150826002028217905092915050565b6118b682610f3e565b67ffffffffffffffff8111156118cf576118ce611200565b5b6118d98254611594565b6118e4828285611820565b600060209050601f8311600181146119175760008415611905578287015190505b61190f8582611891565b865550611977565b601f19841661192586611701565b60005b8281101561194d57848901518255600182019150602085019450602081019050611928565b8683101561196a5784890151611966601f891682611873565b8355505b6001600288020188555050505b505050505050565b600060408201905081810360008301526119998185611446565b90506119a86020830184611623565b939250505056fea2646970667358221220c0ea564bfa22d053131283b34ec1dc1626099a2333cd9f1541a7c302752f6ecf64736f6c634300081a0033","linkReferences":{}},"methodIdentifiers":{"addPost((string,string))":"77f47e86","getAllPosts(uint256,uint256)":"2895a7d8","getLikesOfPost(uint256)":"9be69d6c","getPost(uint256)":"40731c24","getPostCounterByUser(address)":"f9d1608e","getPostUser(address,uint256)":"7519995e","getUri(uint256)":"da0544aa","like(uint256)":"e82935da","s_postCounterId()":"82cfb270","unlike(uint256)":"74d21ae0"},"id":0}