{"abi":[{"type":"function","name":"addPost","inputs":[{"name":"_post","type":"tuple","internalType":"struct Instagram.Post","components":[{"name":"description","type":"string","internalType":"string"},{"name":"uri","type":"string","internalType":"string"}]}],"outputs":[],"stateMutability":"nonpayable"},{"type":"function","name":"getAllPosts","inputs":[{"name":"_start","type":"uint256","internalType":"uint256"},{"name":"_end","type":"uint256","internalType":"uint256"}],"outputs":[{"name":"","type":"tuple[]","internalType":"struct Instagram.Post[]","components":[{"name":"description","type":"string","internalType":"string"},{"name":"uri","type":"string","internalType":"string"}]}],"stateMutability":"view"},{"type":"function","name":"getLikesOfPost","inputs":[{"name":"_postId","type":"uint256","internalType":"uint256"}],"outputs":[{"name":"","type":"uint256","internalType":"uint256"}],"stateMutability":"view"},{"type":"function","name":"getPost","inputs":[{"name":"_postId","type":"uint256","internalType":"uint256"}],"outputs":[{"name":"","type":"tuple","internalType":"struct Instagram.Post","components":[{"name":"description","type":"string","internalType":"string"},{"name":"uri","type":"string","internalType":"string"}]}],"stateMutability":"view"},{"type":"function","name":"getPostCounterByUser","inputs":[{"name":"_user","type":"address","internalType":"address"}],"outputs":[{"name":"","type":"uint256","internalType":"uint256"}],"stateMutability":"view"},{"type":"function","name":"getPostUser","inputs":[{"name":"_user","type":"address","internalType":"address"},{"name":"_postId","type":"uint256","internalType":"uint256"}],"outputs":[{"name":"","type":"tuple","internalType":"struct Instagram.Post","components":[{"name":"description","type":"string","internalType":"string"},{"name":"uri","type":"string","internalType":"string"}]}],"stateMutability":"view"},{"type":"function","name":"getUri","inputs":[{"name":"_postId","type":"uint256","internalType":"uint256"}],"outputs":[{"name":"","type":"string","internalType":"string"}],"stateMutability":"view"},{"type":"function","name":"like","inputs":[{"name":"_postId","type":"uint256","internalType":"uint256"}],"outputs":[],"stateMutability":"nonpayable"},{"type":"function","name":"s_postCounterId","inputs":[],"outputs":[{"name":"","type":"uint256","internalType":"uint256"}],"stateMutability":"view"},{"type":"function","name":"unlike","inputs":[{"name":"_postId","type":"uint256","internalType":"uint256"}],"outputs":[],"stateMutability":"nonpayable"},{"type":"event","name":"Like","inputs":[{"name":"postId","type":"uint256","indexed":true,"internalType":"uint256"},{"name":"user","type":"address","indexed":false,"internalType":"address"}],"anonymous":false},{"type":"event","name":"PostAdded","inputs":[{"name":"postId","type":"uint256","indexed":true,"internalType":"uint256"},{"name":"description","type":"string","indexed":false,"internalType":"string"},{"name":"owner","type":"address","indexed":false,"internalType":"address"}],"anonymous":false},{"type":"event","name":"Unlike","inputs":[{"name":"postId","type":"uint256","indexed":true,"internalType":"uint256"},{"name":"user","type":"address","indexed":false,"internalType":"address"}],"anonymous":false},{"type":"error","name":"PostDoesNotExist","inputs":[{"name":"","type":"uint256","internalType":"uint256"}]}],"bytecode":{"object":"0x6080604052348015600f57600080fd5b506110738061001f6000396000f3fe608060405234801561001057600080fd5b506004361061009e5760003560e01c806382cfb2701161006657806382cfb270146101275780639be69d6c1461013e578063da0544aa14610151578063e82935da14610171578063f9d1608e1461018457600080fd5b80632895a7d8146100a357806340731c24146100cc57806374d21ae0146100ec5780637519995e1461010157806377f47e8614610114575b600080fd5b6100b66100b1366004610b45565b6101ad565b6040516100c39190610be4565b60405180910390f35b6100df6100da366004610c49565b6103b1565b6040516100c39190610c62565b6100ff6100fa366004610c49565b61053d565b005b6100df61010f366004610c98565b6106ba565b6100ff610122366004610d67565b610856565b61013060005481565b6040519081526020016100c3565b61013061014c366004610c49565b610991565b61016461015f366004610c49565b6109d6565b6040516100c39190610e22565b6100ff61017f366004610c49565b610aaa565b610130610192366004610e35565b6001600160a01b031660009081526003602052604090205490565b606060006101bb8484610e66565b6101c6906001610e79565b905060008167ffffffffffffffff8111156101e3576101e3610cc2565b60405190808252806020026020018201604052801561022857816020015b60408051808201909152606080825260208201528152602001906001900390816102015790505b50905060005b828110156103a657600160006102448389610e79565b815260200190815260200160002060405180604001604052908160008201805461026d90610e8c565b80601f016020809104026020016040519081016040528092919081815260200182805461029990610e8c565b80156102e65780601f106102bb576101008083540402835291602001916102e6565b820191906000526020600020905b8154815290600101906020018083116102c957829003601f168201915b505050505081526020016001820180546102ff90610e8c565b80601f016020809104026020016040519081016040528092919081815260200182805461032b90610e8c565b80156103785780601f1061034d57610100808354040283529160200191610378565b820191906000526020600020905b81548152906001019060200180831161035b57829003601f168201915b50505050508152505082828151811061039357610393610ec0565b602090810291909101015260010161022e565b509150505b92915050565b6040805180820190915260608082526020820152816000548111806103d4575080155b156103f95760405162c77bc560e11b8152600481018290526024015b60405180910390fd5b60008381526001602052604090819020815180830190925280548290829061042090610e8c565b80601f016020809104026020016040519081016040528092919081815260200182805461044c90610e8c565b80156104995780601f1061046e57610100808354040283529160200191610499565b820191906000526020600020905b81548152906001019060200180831161047c57829003601f168201915b505050505081526020016001820180546104b290610e8c565b80601f01602080910402602001604051908101604052809291908181526020018280546104de90610e8c565b801561052b5780601f106105005761010080835404028352916020019161052b565b820191906000526020600020905b81548152906001019060200180831161050e57829003601f168201915b50505050508152505091505b50919050565b8060005481118061054c575080155b1561056c5760405162c77bc560e11b8152600481018290526024016103f0565b6000828152600460205260408120905b815481101561067f57336001600160a01b03168282815481106105a1576105a1610ec0565b6000918252602090912001546001600160a01b03160361067757815460009083906105ce90600190610e66565b815481106105de576105de610ec0565b9060005260206000200160009054906101000a90046001600160a01b031690508083838154811061061157610611610ec0565b9060005260206000200160006101000a8154816001600160a01b0302191690836001600160a01b031602179055508280548061064f5761064f610ed6565b600082815260209020810160001990810180546001600160a01b03191690550190555061067f565b60010161057c565b5060405133815283907f59b64a402d5e7d57bd1da203ec10442e896570cfc641d11b1eb0d71a71469c149060200160405180910390a2505050565b6040805180820190915260608082526020820152816000548111806106dd575080155b156106fd5760405162c77bc560e11b8152600481018290526024016103f0565b6001600160a01b038416600090815260026020908152604080832086845290915290819020815180830190925280548290829061073990610e8c565b80601f016020809104026020016040519081016040528092919081815260200182805461076590610e8c565b80156107b25780601f10610787576101008083540402835291602001916107b2565b820191906000526020600020905b81548152906001019060200180831161079557829003601f168201915b505050505081526020016001820180546107cb90610e8c565b80601f01602080910402602001604051908101604052809291908181526020018280546107f790610e8c565b80156108445780601f1061081957610100808354040283529160200191610844565b820191906000526020600020905b81548152906001019060200180831161082757829003601f168201915b50505050508152505091505092915050565b6000816020015151116108a15760405162461bcd60e51b81526020600482015260136024820152725572692063616e6e6f7420626520656d70747960681b60448201526064016103f0565b6000805490806108b083610eec565b9091555050600080548152600160205260409020815182919081906108d59082610f54565b50602082015160018201906108ea9082610f54565b5050336000908152600260209081526040808320835484529091529020825183925081906109189082610f54565b506020820151600182019061092d9082610f54565b5050336000908152600360205260408120805492509061094c83610eec565b909155505060005481516040517f04252f9458f5e6a7ca08253452fa6b47ae7e4e41f3638def7f399e2e3dd64c7991610986913390611013565b60405180910390a250565b6000816000548111806109a2575080155b156109c25760405162c77bc560e11b8152600481018290526024016103f0565b505060009081526004602052604090205490565b6060816000548111806109e7575080155b15610a075760405162c77bc560e11b8152600481018290526024016103f0565b6000838152600160208190526040909120018054610a2490610e8c565b80601f0160208091040260200160405190810160405280929190818152602001828054610a5090610e8c565b8015610a9d5780601f10610a7257610100808354040283529160200191610a9d565b820191906000526020600020905b815481529060010190602001808311610a8057829003601f168201915b5050505050915050919050565b80600054811180610ab9575080155b15610ad95760405162c77bc560e11b8152600481018290526024016103f0565b600082815260046020908152604080832080546001810182559084529282902090920180546001600160a01b03191633908117909155915191825283917fda935a3772736202dd12b1bc54cb3460939e447d95d5648c6dbd89836121823a910160405180910390a25050565b60008060408385031215610b5857600080fd5b50508035926020909101359150565b6000815180845260005b81811015610b8d57602081850181015186830182015201610b71565b506000602082860101526020601f19601f83011685010191505092915050565b6000815160408452610bc26040850182610b67565b905060208301518482036020860152610bdb8282610b67565b95945050505050565b6000602082016020835280845180835260408501915060408160051b86010192506020860160005b82811015610c3d57603f19878603018452610c28858351610bad565b94506020938401939190910190600101610c0c565b50929695505050505050565b600060208284031215610c5b57600080fd5b5035919050565b602081526000610c756020830184610bad565b9392505050565b80356001600160a01b0381168114610c9357600080fd5b919050565b60008060408385031215610cab57600080fd5b610cb483610c7c565b946020939093013593505050565b634e487b7160e01b600052604160045260246000fd5b600082601f830112610ce957600080fd5b813567ffffffffffffffff811115610d0357610d03610cc2565b604051601f8201601f19908116603f0116810167ffffffffffffffff81118282101715610d3257610d32610cc2565b604052818152838201602001851015610d4a57600080fd5b816020850160208301376000918101602001919091529392505050565b600060208284031215610d7957600080fd5b813567ffffffffffffffff811115610d9057600080fd5b820160408185031215610da257600080fd5b6040805190810167ffffffffffffffff81118282101715610dc557610dc5610cc2565b604052813567ffffffffffffffff811115610ddf57600080fd5b610deb86828501610cd8565b825250602082013567ffffffffffffffff811115610e0857600080fd5b610e1486828501610cd8565b602083015250949350505050565b602081526000610c756020830184610b67565b600060208284031215610e4757600080fd5b610c7582610c7c565b634e487b7160e01b600052601160045260246000fd5b818103818111156103ab576103ab610e50565b808201808211156103ab576103ab610e50565b600181811c90821680610ea057607f821691505b60208210810361053757634e487b7160e01b600052602260045260246000fd5b634e487b7160e01b600052603260045260246000fd5b634e487b7160e01b600052603160045260246000fd5b600060018201610efe57610efe610e50565b5060010190565b601f821115610f4f57806000526020600020601f840160051c81016020851015610f2c5750805b601f840160051c820191505b81811015610f4c5760008155600101610f38565b50505b505050565b815167ffffffffffffffff811115610f6e57610f6e610cc2565b610f8281610f7c8454610e8c565b84610f05565b6020601f821160018114610fb65760008315610f9e5750848201515b600019600385901b1c1916600184901b178455610f4c565b600084815260208120601f198516915b82811015610fe65787850151825560209485019460019092019101610fc6565b50848210156110045786840151600019600387901b60f8161c191681555b50505050600190811b01905550565b6040815260006110266040830185610b67565b905060018060a01b0383166020830152939250505056fea26469706673582212201d822fb4054727f171b956c460b22a9160b9829cc1460c45c95f91104983bfca64736f6c634300081a0033","linkReferences":{}},"methodIdentifiers":{"addPost((string,string))":"77f47e86","getAllPosts(uint256,uint256)":"2895a7d8","getLikesOfPost(uint256)":"9be69d6c","getPost(uint256)":"40731c24","getPostCounterByUser(address)":"f9d1608e","getPostUser(address,uint256)":"7519995e","getUri(uint256)":"da0544aa","like(uint256)":"e82935da","s_postCounterId()":"82cfb270","unlike(uint256)":"74d21ae0"},"id":0}